:100000000C948F000C94B7000C94B7000C94B700BC
:100010000C94B7000C94B7000C94B7000C94B70084
:100020000C94B7000C94B7000C94B7000C94B70074
:100030000C94B7000C94B7000C94B7000C94B70064
:100040000C9482030C94B7000C94CC030C940B0416
:100050000C9466040C94B7000C94B7000C94B70091
:100060000C94B7000C94B700000000002500280095
:100070002B0000000000240027002A0004040404D0
:100080000404040402020202020203030303030342
:10009000010204081020408001020408102001021F
:1000A00004081020014169727370656564000000E6
:1000B0000000000000000000006B6D2F68000000D1
:1000C000010000000000000000000000000000002F
:1000D0000000000000000000000000000000000020
:1000E00001416972737065656400000000000000E2
:1000F00000000000006D70680000000001000000BA
:1001000000000000000000000000000000000000EF
:10011000000000000000000000000000D2091124CF
:100120001FBECFEFD8E0DEBFCDBF11E0A0E0B1E051
:10013000E8E3FCE102C005900D92A239B107D9F7BE
:1001400022E0A2E9B1E001C01D92A637B207E1F7B3
:1001500010E0CFE8D0E004C02197FE010E94AD0C72
:10016000CE38D107C9F70E9493040C941A0E0C9450
:10017000000061157105D1F0019719F4EEE5F2E088
:1001800002C0EEE4F2E0DB019F01205F3F4F80E020
:1001900040E29D91992321F0811102C0908302C019
:1001A000408381E03196E217F30799F70895CF93E2
:1001B000DF9390E0FC01E057FF4F2491FC01E458ED
:1001C000FF4F8491882361F190E0880F991FFC0113
:1001D000EE58FF4FC591D491FC01E859FF4FA5910E
:1001E000B491611109C09FB7F8948881209582234A
:1001F0008883EC912E230BC0623061F49FB7F89492
:100200003881822F809583238883EC912E2B2C9329
:100210009FBF06C08FB7F894E8812E2B28838FBF2D
:10022000DF91CF9108958E3008F08E5087708064F2
:1002300080937C0080917A00806480937A00809122
:100240007A0086FDFCCF809178002091790090E0C3
:10025000922B08953FB7F894809195019091960163
:10026000A0919701B091980126B5A89B05C02F3F9A
:1002700019F00196A11DB11D3FBFBA2FA92F982FCC
:100280008827820F911DA11DB11DBC01CD0143E046
:10029000660F771F881F991F4A95D1F708958F928F
:1002A0009F92AF92BF92CF92DF92EF92FF926B013B
:1002B0007C010E942A014B015C01C114D104E104BC
:1002C000F104F1F00E942A01DC01CB01881999099F
:1002D000AA09BB09883E9340A105B10570F321E04E
:1002E000C21AD108E108F10888EE880E83E0981E52
:1002F000A11CB11CC114D104E104F10419F7DDCF34
:10030000FF90EF90DF90CF90BF90AF909F908F9035
:1003100008951F93CF93DF93F894EC01CA57DF4FF2
:100320002881203400F5DC01AE57BF4F1C91119697
:100330005C91119770E0411103C020E030E002C0F1
:1003400020E031E0622B732BE12FF52F7183608366
:10035000329628812F5F2883EA17FB0710F0FC01F3
:100360003296ED93FC93FC01E057FF4F80818111A1
:1003700008C081E080838091C1008F76886280937D
:10038000C1007894DF91CF911F910895FC01E1574E
:10039000FF4F2081222301F1F894A0919201B091A6
:1003A0009301A357BF4F0D90BC91A02D4C9120817C
:1003B000215020833297208131812F5F3F4FBC0134
:1003C00065577F4F2617370718F09C0129573F4F75
:1003D00031832083789401C040E0842F08951092E7
:1003E000C0008CE18093C10086E38093C20010922C
:1003F000C50082E38093C40062E080E00E94D700E1
:1004000062E081E00C94D70008950895EF92FF9286
:100410000F931F93CF93DF93CDB7DEB76E970FB6D1
:10042000F894DEBF0FBECDBF8C017A01FC011282B1
:100430008FEF9FEFDC0183839483A583B683138EB4
:10044000148E158E168E178E4EE1469FC001479F63
:10045000900D1124B901680F791F4EE150E0CE01D3
:1004600001960E94FB098D8DF801858F8981828319
:10047000E114F10451F0F70180819181A281B381EF
:10048000F80183839483A583B683A801495F5F4FF6
:10049000FE013296DA0190E08191811105C0392F79
:1004A000F801938F232F0FC0933119F09F5F8D9325
:1004B000F3CF33E1F5CF8331910594F4FA01E80FDE
:1004C000F91F70832F5F622F631BE1E0F0E0EC0FF8
:1004D000FD1FE60FF11D7589822F90E07111EBCFA2
:1004E000F801648FFA01E80FF91F10828E8D8130B8
:1004F00021F0823029F480E401C080E2F801868F87
:10050000F801858D843091F030F4882361F08130DA
:1005100079F483E00BC0883041F0893031F08530C8
:1005200039F484E003C082E001C085E0F801878FE0
:100530006E960FB6F894DEBF0FBECDBFDF91CF91A0
:100540001F910F91FF90EF900895CF93DF93EC01EF
:100550000E94EF01FE01329680E8DF011D928A952C
:10056000E9F7DE01AE57BF4F1196FC93EE9312965A
:100570001196FC93EE93EC57FF4F10823196108248
:1005800011821282138217961196FC93EE931296A3
:10059000ED93FC933896108231961082D09393019C
:1005A000C0939201DF91CF910895EF92FF920F9344
:1005B0001F93CF93DF93CDB7DEB76E970FB6F89446
:1005C000DEBF0FBECDBF7C0110E2EEE2F2E0DF0144
:1005D000812F1D928A95E9F740E250E060E270E0D9
:1005E0008EE492E00E94010E10920B0243E150E073
:1005F00065E171E080EF91E00E94080E83E0809356
:100600000402F0920602E0920502ECE0F2E0DF0163
:100610001D921A95E9F7F12C00E010E060910502B7
:1006200070910602600F711F4EE150E0CE010196FD
:100630000E94FB09E981EE23B1F0E03220F4F0E002
:10064000E551FE4FF1A28091090290910A020196B4
:1006500090930A0280930902025E1F4FF394003CBC
:10066000B3E01B07D9F60091090210910A02013C80
:10067000EFE11E0730F4C801880F991F880F991FFA
:1006800002C08FEF9FEF0E94B30CFC0120E030E02E
:100690004FEF5FEFBA012017310739F041935193C3
:1006A000619371932F5F3F4FF6CF80930702909332
:1006B000080281E990E00E94B30C21E9DC011D925F
:1006C0002A95E9F72BE031E0FC01318320839093F8
:1006D0002D0280932C020E94A50260ED77E080E05D
:1006E00090E00E944F016E960FB6F894DEBF0FBEE9
:1006F000CDBFDF91CF911F910F91FF90EF900895A3
:100700000E94E00D1F920F920FB60F9211242F93AB
:100710003F938F939F93AF93BF9380919B01909151
:100720009C01A0919D01B0919E013091940126E021
:10073000230F2D3720F40296A11DB11D05C029E815
:10074000230F0396A11DB11D2093940180939B015B
:1007500090939C01A0939D01B0939E01809195017F
:1007600090919601A0919701B09198010196A11DD9
:10077000B11D8093950190939601A0939701B0933A
:100780009801BF91AF919F918F913F912F910F90C1
:100790000FBE0F901F9018951F920F920FB60F92D9
:1007A00011242F933F938F939F93AF93BF93EF9316
:1007B000FF939091C600903731F0903B21F0903D2F
:1007C00011F0903ED9F42091920130919301F901FA
:1007D000E557FF4FA081B1819C93D901A157BF4F2D
:1007E0008C918F5F8C938081918101968E179F07EA
:1007F00018F0C90189579F4F91838083FF91EF9132
:10080000BF91AF919F918F913F912F910F900FBE0C
:100810000F901F9018951F920F920FB60F921124F0
:100820002F933F934F935F938F939F93EF93FF93F8
:100830008091920190919301FC01EA57FF4F208132
:10084000222351F132970190F081E02D20813181F6
:100850008091C10030FF02C0816001C08E7F809313
:10086000C1002093C6002091920130919301F901BB
:10087000EA57FF4F80818150808332978081918138
:100880000296A9014E575F4F8417950710F0C901D2
:100890000296918380830DC08091C1008F7D80641A
:1008A0008093C100E0919201F0919301E057FF4FD6
:1008B0001082FF91EF919F918F915F914F913F91A6
:1008C0002F910F900FBE0F901F9018951F920F92AF
:1008D0000FB60F9211242F933F938F939F93EF9313
:1008E000FF93E1ECF0E08081877B806980838091D9
:1008F0009201909193019C0129573F4FFC01E557CC
:10090000FF4F3183208332963183208332961082C9
:10091000FF91EF919F918F913F912F910F900FBE7B
:100920000F901F901895CF93DF93CDB7DEB7A397A5
:100930000FB6F894DEBF0FBECDBF789484B5826049
:1009400084BD84B5816084BD85B5826085BD85B573
:10095000816085BD80916E00816080936E001092F1
:10096000810080918100826080938100809181006C
:1009700081608093810080918000816080938000FD
:100980008091B10084608093B1008091B00081605B
:100990008093B00080917A00846080937A00809187
:1009A0007A00826080937A0080917A008E7F8093B3
:1009B0007A0080917A00806880937A001092C1005A
:1009C00080E090E00E94040A90E09093A001809360
:1009D0009F018F3F910521F41092A00110929F0179
:1009E00020919F013091A0018091040221303105B6
:1009F00029F4811109C080EE90E004C0811104C087
:100A000084EA90E00E94D5028091A3010E94130124
:100A10009093A6018093A50108EC10E08091A301BA
:100A20000E941301BC01990F880B990B0E94310B96
:100A300020E030E040E85EE30E94BD0B6B017C01EA
:100A40008091A5019091A601BC01990F880B990B8B
:100A50000E94310B20E030E040E45FE30E94BD0BD8
:100A60009B01AC01C701B6010E941B0A0E94F90A52
:100A70007093A6016093A50164E170E080E090E0CE
:100A80000E944F010150110949F6EFEBF1E011927C
:100A9000119221E0E73EF207D1F786E780937002DA
:100AA00083E38093710222E080E392E0281B29A374
:100AB000AAE12A2E312CBBE78B2EB4E99B2EB2E99A
:100AC000AB2EB3E4BB2E1CE1C12E1EE1D12E1AE9E0
:100AD000E12E1FE3F12E0091E7011091E801000FD4
:100AE000111FF801E154FE4F6090E9017090EA0196
:100AF00020813181621A730A28E030E0412C512CA8
:100B00008091A3012AA33BA30E941301480E591E02
:100B10002AA13BA12150310999F78091A50190911B
:100B2000A601B201E3E075956795EA95E1F76817CC
:100B300079070CF4BC01681B790B072E000C880B9D
:100B4000990B0E94310B20E030E040E85AE30E940C
:100B5000BD0B20E030E44CE955E40E94BD0B20E8D9
:100B600036EE45EC57E40E941B0A6093A701709390
:100B7000A8018093A9019093AA0120E836EE45ECE4
:100B800057E42093AB013093AC014093AD015093F7
:100B9000AE018092AF019092B001A092B101B092EB
:100BA000B201C092BB01D092BC01E092BD01F092B3
:100BB000BE010E941A0A9B01AC010E941B0A2CE193
:100BC0003EE14AE95FE30E94870A0E94300C60938D
:100BD000B3017093B4018093B5019093B60126E6FA
:100BE00036E646E650E40E94BD0B6093B701709371
:100BF000B8018093B9019093BA0101541E4F0E942D
:100C0000F90AD8016D937C932091E7013091E801B6
:100C1000F901EE0FFF1FE154FE4F80819181860D97
:100C2000971D9093EA018093E9012F5F3F4F243194
:100C300031052CF43093E8012093E70104C01092B1
:100C4000E8011092E70164E170E00E94850C709366
:100C5000A2016093A10180919F019091A001019751
:100C600091F4072E000C880B990B0E94310B2BE29C
:100C700032E14FE15FE30E94BD0B0E94F90A7093DD
:100C8000A2016093A1018091A1019091A2014497DA
:100C900024F41092A2011092A1014091A10150915F
:100CA000A201052E000C660B770B80910702909134
:100CB0000802009761F020910D02FC01B4E02B9F27
:100CC000E00DF11D11244083518362837383809171
:100CD0002C0290912D02DC01ED91FC910480F581B4
:100CE000E02D0995803E51F48091990190919A01EF
:100CF000833091050CF05BC0019652C0803751F4EF
:100D00008091990190919A01181619060CF04FC024
:100D1000019746C0803B09F04AC0809199019091AB
:100D20009A01019791F41092A00110929F0160E046
:100D300080E090E00E940C0A84E090E090939A0199
:100D40008093990181E080930001809199019091B5
:100D50009A010297A1F481E090E09093A001809322
:100D60009F0161E080E090E00E940C0A84E090E046
:100D700090939A018093990181E080930001809182
:100D8000990190919A01039791F41092A001109209
:100D90009F0160E080E090E00E940C0A84E090E017
:100DA00090939A018093990181E080930001809152
:100DB00000018823B9F18091990190919A018230C4
:100DC0009105F9F03CF4009799F0019759F568E323
:100DD00071E01CC083309105B9F0049719F56FE6F6
:100DE00071E080E090E00E94B90060E871E014C01A
:100DF00069E171E080E090E00E94B90069E271E091
:100E00000BC063E571E002C06FE571E080E090E047
:100E10000E94B90065E471E081E090E00E94B900B1
:100E2000109200018091EB019091EC01A091ED01F5
:100E3000B091EE018A569F4FAF4FBF4F2FB7F89436
:100E400040919B0150919C0160919D0170919E0188
:100E50002FBF481759076A077B0708F49BC22FB7B3
:100E6000F89480919B0190919C01A0919D01B0917B
:100E70009E012FBF8093EB019093EC01A093ED01B5
:100E8000B093EE0180916F02882351F180912C0282
:100E900090912D02DC01ED91FC910280F381E02D17
:100EA00040E06EE7099580912C0290912D02DC01C3
:100EB000ED91FC910280F381E02D41E061E909951B
:100EC00080912C0290912D02DC01ED91FC91028029
:100ED000F381E02D41E061E3099510926F0213C2A6
:100EE00010916E02112309F44BC0612E012E000CEB
:100EF0007708C3010E94E90D892B31F0C3010E94DC
:100F0000F00D182F00E001C001E080912C029091BB
:100F10002D02DC01ED91FC910280F381E02D40E097
:100F20006EE7099580912C0290912D02DC01ED91E4
:100F3000FC910280F381E02D41E062E0099580910F
:100F40002C0290912D02DC01ED91FC910280F38145
:100F5000E02D011102C062E201C063E241E00995A7
:100F600080912C0290912D02DC01ED91FC91028088
:100F7000F381E02D41E0612F099510926E02C3C10B
:100F800020910502309106022115310509F4BBC1FB
:100F90006091EF0181E0860F8093EF01611118C02D
:100FA000109230021092360210910402812F880FA5
:100FB000880F880F80933702412F50E060EF71E077
:100FC00088E392E00E94F80D5AE0752E710E42C13E
:100FD00060FD34C0669570E08091090290910A022C
:100FE000861797075CF16150710940E050E0CE012F
:100FF00001960E940602109230028B818093360285
:101000008C8DB8E08B9FC00111249D8D892B80931E
:10101000370280E02AE0280FE8E0F0E0EC0FFD1F47
:10102000E80FF11D9081992339F08F5FE22FF0E0F6
:10103000E25DFD4F9083EECF722E0CC180E4809371
:10104000300200E010E048E0742E80910B02209105
:10105000050230910602682F70E04091070250911E
:101060000802E4E08E9F400D511D1124CE0101962F
:101070000E9406028C819D81AE81BF818F3FFFEF70
:101080009F07AF07BF0709F4C6C05B81272D30E07B
:101090004E8D71E0770D503168F0225D3D4F642F29
:1010A0006F70F901608373947394E72FF0E0E25D51
:1010B000FD4F0BC0772EF901E25DFD4F20E1529FFD
:1010C000B0011124542F5F70562B508368A170E03B
:1010D000272D30E04430B9F128F4442369F0413041
:1010E000D9F095C0483009F466C0493009F480C091
:1010F000453009F08CC042C0482F4F71B7FD02C087
:1011000080E001C080E8F901E25DFD4F842B9F8DF6
:10111000892B808381E07CC0F901E25DFD4F8083F3
:10112000A9014F5F5F4FE92FEF71B7FD02C080E06B
:1011300001C080E8DA01A25DBD4F8E2B9F8D892B07
:101140008C9382E065C0A90145515E4FFA01ED5BC9
:10115000FF4F808331969083A9014E5F5F4FEA2F46
:10116000EF71B7FD02C080E001C080E8DA01A25D46
:10117000BD4F8E2B9F8D892B8C931BC0A901455190
:101180005E4FFA01ED5BFF4F808331969083A9019A
:101190004E5F5F4F2D01772457FC7094672CB7FD8D
:1011A00002C080E001C080E8FA01E25DFD4F482AFC
:1011B000408283E02DC0A90145515E4FFA01ED5BED
:1011C000FF4F8083319690833196A083A9014D5FB4
:1011D0005F4FEB2FEF71B7FD02C080E001C080E8E8
:1011E000DA01A25DBD4F8E2B9F8D892B8C930DC094
:1011F000A90145515E4FFA01ED5BFF4F80833196A7
:1012000090833196A0833196B08384E001C080E062
:10121000782E720E02C060E070E080910B028F5F4A
:1012200080930B022091090230910A0290E082170C
:10123000930714F010920B020F5F1F4F0217130752
:101240004CF4872D90E09101261B370B82179307F2
:101250000CF4FBCE8EE780932E028FE280932F0258
:10126000809130029EEF970D892B8093300289E0A8
:101270008093310284EA80933202809170028093DD
:101280003302809171028093340210923502E72D6F
:10129000F0E0A0E3B2E080E027E099A19A0F971573
:1012A00060F49D91892798E087FF03C0880F82270B
:1012B00001C0880F9150C1F7F0CFE25DFD4F8083F0
:1012C00080912C0290912D02DC01ED91FC91028025
:1012D000F381E02D40E06EE7099511E0711698F07A
:1012E00080912C0290912D02DC01ED91FC91A12FB7
:1012F000B0E0A25DBD4F0280F381E02D41E06C9132
:1013000009951F5FEBCF80912C0290912D02DC019B
:10131000ED91FC910280F381E02D40E06EEF0995A4
:1013200080914E02882319F10EE412E080912C0284
:1013300090912D02F80161918F01DC01ED91FC91FA
:101340000280F381E02D41E00995B2E00E361B07E3
:1013500069F780912C0290912D02DC01ED91FC91B6
:101360000280F381E02D40E06FEF099513C000E2A9
:1013700010E080912C0290912D02DC01ED91FC9106
:101380000280F381E02D41E060E0099501501109F0
:1013900081F7DFCF80E090E0892B09F49CCB0E949D
:1013A000000099CBEBEEF1E01082118212821382E1
:1013B0001482118E138E128E158E148E178E168E29
:1013C00010A210922D0210922C0210926E02109216
:1013D0006F0286E78093700282E380937102158228
:1013E00060E081E10E94D70081E190E09093A40148
:1013F0008093A3010895FB01DC0102C005900D92CA
:1014000041505040D8F70895F999FECF92BD81BD63
:10141000F89A992780B50895262FF999FECF1FBA1B
:1014200092BD81BD20BD0FB6F894FA9AF99A0FBE0D
:10143000019608955058BB27AA270E94320A0C949F
:10144000830B0E94750B38F00E947C0B20F039F45E
:101450009F3F19F426F40C94720B0EF4E095E7FB11
:101460000C946C0BE92F0E94940B58F3BA17620787
:1014700073078407950720F079F4A6F50C94B60B52
:101480000EF4E0950B2EBA2FA02D0B01B90190019F
:101490000C01CA01A0011124FF27591B99F0593FE3
:1014A00050F4503E68F11A16F040A22F232F342F2B
:1014B0004427585FF3CF469537952795A795F04079
:1014C0005395C9F77EF41F16BA0B620B730B840B8E
:1014D000BAF09150A1F0FF0FBB1F661F771F881F46
:1014E000C2F70EC0BA0F621F731F841F48F487959E
:1014F00077956795B795F7959E3F08F0B0CF939590
:10150000880F08F09927EE0F9795879508950E9408
:101510009B0A0C94830B0E947C0B58F00E94750B65
:1015200040F029F45F3F29F00C946C0B51110C949E
:10153000B70B0C94720B0E94940B68F39923B1F3D0
:10154000552391F3951B550BBB27AA2762177307E9
:10155000840738F09F5F5F4F220F331F441FAA1F7D
:10156000A9F335D00E2E3AF0E0E832D09150504039
:10157000E695001CCAF72BD0FE2F29D0660F771FE7
:10158000881FBB1F261737074807AB07B0E809F0CD
:10159000BB0B802DBF01FF2793585F4F3AF09E3F52
:1015A000510578F00C946C0B0C94B70B5F3FE4F38F
:1015B000983ED4F3869577956795B795F7959F5F95
:1015C000C9F7880F911D9695879597F90895E1E0E1
:1015D000660F771F881FBB1F621773078407BA0740
:1015E00020F0621B730B840BBA0BEE1F88F7E0959B
:1015F00008950E94000B6894B1110C94B70B0895E4
:101600000E949C0B88F09F5798F0B92F9927B751EB
:10161000B0F0E1F0660F771F881F991F1AF0BA9596
:10162000C9F714C0B13091F00E94B60BB1E0089533
:101630000C94B60B672F782F8827B85F39F0B93F25
:10164000CCF3869577956795B395D9F73EF4909549
:101650008095709561957F4F8F4F9F4F0895E894C7
:1016600009C097FB3EF490958095709561957F4FEA
:101670008F4F9F4F9923A9F0F92F96E9BB27939598
:10168000F695879577956795B795F111F8CFFAF4A8
:10169000BB0F11F460FF1BC06F5F7F4F8F4F9F4FD9
:1016A00016C0882311F096E911C0772321F09EE837
:1016B000872F762F05C0662371F096E8862F70E09D
:1016C00060E02AF09A95660F771F881FDAF7880F77
:1016D0009695879597F9089597F99F6780E870E048
:1016E00060E008959FEF80EC089500240A94161698
:1016F000170618060906089500240A941216130600
:10170000140605060895092E0394000C11F488238D
:1017100052F0BB0F40F4BF2B11F460FF04C06F5FA9
:101720007F4F8F4F9F4F089557FD9058440F551F7F
:1017300059F05F3F71F04795880F97FB991F61F053
:101740009F3F79F087950895121613061406551FCA
:10175000F2CF4695F1DF08C0161617061806991F36
:10176000F1CF86957105610508940895E894BB272B
:1017700066277727CB0197F908950E94D00B0C9428
:10178000830B0E94750B38F00E947C0B20F0952390
:1017900011F00C946C0B0C94720B11240C94B70B7D
:1017A0000E94940B70F3959FC1F3950F50E0551F65
:1017B000629FF001729FBB27F00DB11D639FAA27A6
:1017C000F00DB11DAA1F649F6627B00DA11D661FF5
:1017D000829F2227B00DA11D621F739FB00DA11D16
:1017E000621F839FA00D611D221F749F3327A00DD0
:1017F000611D231F849F600D211D822F762F6A2F6C
:1018000011249F5750409AF0F1F088234AF0EE0FD0
:10181000FF1FBB1F661F771F881F91505040A9F7FD
:101820009E3F510580F00C946C0B0C94B70B5F3FFE
:10183000E4F3983ED4F3869577956795B795F79539
:10184000E7959F5FC1F7FE2B880F911D96958795B1
:1018500097F9089519F416F40C94720B0C94700C0B
:101860000E949C0BB8F39923C9F3B6F39F57550B0D
:1018700087FF0E947E0C0024A0E640EA9001805879
:101880005695979528F4805C660F771F881F20F087
:1018900026173707480730F4621B730B840B202987
:1018A00031294A2BA69517940794202531254A27DC
:1018B00058F7660F771F881F20F02617370748074D
:1018C00030F4620B730B840B200D311D411DA0956C
:1018D00081F7B901842F9158880F969587950895BF
:1018E0009F3F31F0915020F4879577956795B79594
:1018F000880F911D9695879597F9089591505040BE
:10190000660F771F881FD2F7089597FB072E16F4EE
:10191000009407D077FD09D00E94990C07FC05D0F0
:101920003EF4909581959F4F0895709561957F4FF6
:101930000895AA1BBB1B51E107C0AA1FBB1FA61716
:10194000B70710F0A61BB70B881F991F5A95A9F768
:1019500080959095BC01CD010895EE0FFF1F059075
:10196000F491E02D0994CF93DF938230910510F428
:1019700082E090E0E0917402F091750220E030E0A6
:10198000C0E0D0E0309711F14081518148175907EC
:10199000C0F04817590761F482819381209719F0AC
:1019A0009B838A832BC0909375028093740226C018
:1019B0002115310519F04217530718F49A01BE0199
:1019C000DF01EF010280F381E02DDCCF211531052D
:1019D00009F1281B390B2430310590F412968D91B2
:1019E0009C9113976115710521F0FB01938382830C
:1019F00004C09093750280937402FD01329644C036
:101A0000FD01E20FF31F81939193225031092D9331
:101A10003C933AC02091720230917302232B41F41F
:101A200020910301309104013093730220937202DC
:101A300020910101309102012115310541F42DB7AA
:101A40003EB74091050150910601241B350BE091F2
:101A50007202F0917302E217F307A0F42E1B3F0B02
:101A60002817390778F0AC014E5F5F4F2417350710
:101A700048F04E0F5F1F50937302409372028193A0
:101A8000919302C0E0E0F0E0CF01DF91CF910895A3
:101A90000F931F93CF93DF93009709F48CC0FC0141
:101AA000329713821282009174021091750201150F
:101AB000110581F420813181820F931F20917202E0
:101AC000309173022817390779F5F0937302E09388
:101AD000720271C0D80140E050E0AE17BF0750F469
:101AE00012962D913C911397AD012115310509F105
:101AF000D901F3CF9D01DA013383228360817181A3
:101B0000860F971F8217930769F4EC0128813981AA
:101B1000260F371F2E5F3F4F318320838A819B81A1
:101B200093838283452B29F4F0937502E09374022A
:101B300042C01396FC93EE931297ED01499159918F
:101B40009E01240F351FE217F30771F48081918104
:101B5000840F951F029611969C938E938281938198
:101B600013969C938E931297E0E0F0E0D8011296C2
:101B70008D919C911397009719F0F8018C01F6CF85
:101B80008D919C9198012E5F3F4F820F931F209162
:101B90007202309173022817390769F4309729F4DB
:101BA000109275021092740202C013821282109376
:101BB000730200937202DF91CF911F910F910895EC
:101BC00081E090E0F8940C941A0E85FD0C94170EA9
:101BD000806291110C94170E81568A51D8F708959E
:101BE0009111089581568A5108F4805285580895BC
:101BF000FB01DC0102C001900D9241505040D8F72A
:101C00000895DC0101C06D9341505040E0F7089504
:101C1000FB01DC014150504048F001900D92002042
:101C2000C9F701C01D9241505040E0F7089599272F
:081C300088270895F894FFCF06
:101C38000100007602800000000000A5028901C6AC
:101C480001050204025243540020524354204A65BD
:101C5800746920546F6F6C730020205243542041E4
:101C680069727370656564002020556E69743A2046
:101C78006B6D2F6800202053746F72653A20444FB3
:101C8800574E002020556E69743A206D7068002008
:101C980052657365742064656661756C747300536E
:101CA800657474696E67732073746F72656421005C
:101CB800205365617263682073656E736F72732158
:021CC80000001A
:00000001FF
