:100000000C948F000C94B7000C94B7000C94B700BC
:100010000C94B7000C94B7000C94B7000C94B70084
:100020000C94B7000C94B7000C94B7000C94B70074
:100030000C94B7000C94B7000C94B7000C94B70064
:100040000C9482030C94B7000C94CC030C940B0416
:100050000C9466040C94B7000C94B7000C94B70091
:100060000C94B7000C94B700000000002500280095
:100070002B0000000000240027002A0004040404D0
:100080000404040402020202020203030303030342
:10009000010204081020408001020408102001021F
:1000A00004081020014169727370656564000000E6
:1000B0000000000000000000006B6D2F68000000D1
:1000C000010000000000000000000000000000002F
:1000D0000000000000000000000000000000000020
:1000E00001416972737065656400000000000000E2
:1000F00000000000006D70680000000001000000BA
:1001000000000000000000000000000000000000EF
:10011000000000000000000000000000330A11246D
:100120001FBECFEFD8E0DEBFCDBF11E0A0E0B1E051
:10013000EAEAF2E202C005900D92A63BB107D9F7B8
:1001400022E0A6EBB1E001C01D92AA3AB207E1F7A6
:1001500010E0CFE8D0E004C02197FE010E940E0D10
:10016000CE38D107C9F70E9493040C9453110C9414
:10017000000061157105D1F0019719F4E2E9F2E090
:1001800002C0E2E8F2E0DB019F01205F3F4F80E028
:1001900040E29D91992321F0811102C0908302C019
:1001A000408381E03196E217F30799F70895CF93E2
:1001B000DF9390E0FC01E057FF4F2491FC01E458ED
:1001C000FF4F8491882361F190E0880F991FFC0113
:1001D000EE58FF4FC591D491FC01E859FF4FA5910E
:1001E000B491611109C09FB7F8948881209582234A
:1001F0008883EC912E230BC0623061F49FB7F89492
:100200003881822F809583238883EC912E2B2C9329
:100210009FBF06C08FB7F894E8812E2B28838FBF2D
:10022000DF91CF9108958E3008F08E5087708064F2
:1002300080937C0080917A00806480937A00809122
:100240007A0086FDFCCF809178002091790090E0C3
:10025000922B08953FB7F8948091B9019091BA011B
:10026000A091BB01B091BC0126B5A89B05C02F3F52
:1002700019F00196A11DB11D3FBFBA2FA92F982FCC
:100280008827820F911DA11DB11DBC01CD0143E046
:10029000660F771F881F991F4A95D1F708958F928F
:1002A0009F92AF92BF92CF92DF92EF92FF926B013B
:1002B0007C010E942A014B015C01C114D104E104BC
:1002C000F104F1F00E942A01DC01CB01881999099F
:1002D000AA09BB09883E9340A105B10570F321E04E
:1002E000C21AD108E108F10888EE880E83E0981E52
:1002F000A11CB11CC114D104E104F10419F7DDCF34
:10030000FF90EF90DF90CF90BF90AF909F908F9035
:1003100008951F93CF93DF93F894EC01CA57DF4FF2
:100320002881203400F5DC01AE57BF4F1C91119697
:100330005C91119770E0411103C020E030E002C0F1
:1003400020E031E0622B732BE12FF52F7183608366
:10035000329628812F5F2883EA17FB0710F0FC01F3
:100360003296ED93FC93FC01E057FF4F80818111A1
:1003700008C081E080838091C1008F76886280937D
:10038000C1007894DF91CF911F910895FC01E1574E
:10039000FF4F2081222301F1F894A091B601B09182
:1003A000B701A357BF4F0D90BC91A02D4C91208158
:1003B000215020833297208131812F5F3F4FBC0134
:1003C00065577F4F2617370718F09C0129573F4F75
:1003D00031832083789401C040E0842F08951092E7
:1003E000C0008CE18093C10086E38093C20010922C
:1003F000C50083E38093C40062E080E00E94D700E0
:1004000062E081E00C94D70008950895EF92FF9286
:100410000F931F93CF93DF93CDB7DEB76E970FB6D1
:10042000F894DEBF0FBECDBF8C017A01FC011282B1
:100430008FEF9FEFDC0183839483A583B683138EB4
:10044000148E158E168E178E4EE1469FC001479F63
:10045000900D1124B901680F791F4EE150E0CE01D3
:1004600001960E945C0A8D8DF801858F89818283B7
:10047000E114F10451F0F70180819181A281B381EF
:10048000F80183839483A583B683A801495F5F4FF6
:10049000FE013296DA0190E08191811105C0392F79
:1004A000F801938F232F0FC0933119F09F5F8D9325
:1004B000F3CF33E1F5CF8331910594F4FA01E80FDE
:1004C000F91F70832F5F622F631BE1E0F0E0EC0FF8
:1004D000FD1FE60FF11D7589822F90E07111EBCFA2
:1004E000F801648FFA01E80FF91F10828E8D8130B8
:1004F00021F0823029F480E401C080E2F801868F87
:10050000F801858D843091F030F4882361F08130DA
:1005100079F483E00BC0883041F0893031F08530C8
:1005200039F484E003C082E001C085E0F801878FE0
:100530006E960FB6F894DEBF0FBECDBFDF91CF91A0
:100540001F910F91FF90EF900895CF93DF93EC01EF
:100550000E94EF01FE01329680E8DF011D928A952C
:10056000E9F7DE01AE57BF4F1196FC93EE9312965A
:100570001196FC93EE93EC57FF4F10823196108248
:1005800011821282138217961196FC93EE931296A3
:10059000ED93FC933896108231961082D093B70178
:1005A000C093B601DF91CF910895EF92FF920F9320
:1005B0001F93CF93DF93CDB7DEB76E970FB6F89446
:1005C000DEBF0FBECDBF7C0110E2E2E6F2E0DF014C
:1005D000812F1D928A95E9F740E250E060E270E0D9
:1005E00082E892E00E94620E10923F0243E150E0E6
:1005F00065E171E084E292E00E94690E83E08093FD
:100600003802F0923A02E0923902E0E4F2E0DF01CF
:100610001D921A95E9F7F12C00E010E06091390283
:1006200070913A02600F711F4EE150E0CE010196C9
:100630000E945C0AE981EE23B1F0E03220F4F0E0A0
:10064000E15EFD4FF1A280913D0290913E02019644
:1006500090933E0280933D02025E1F4FF394003C54
:10066000B3E01B07D9F600913D0210913E02013C18
:10067000EFE11E0730F4C801880F991F880F991FFA
:1006800002C08FEF9FEF0E94140DFC0120E030E0CC
:100690004FEF5FEFBA012017310739F041935193C3
:1006A000619371932F5F3F4FF6CF80933B029093FE
:1006B0003C0281E990E00E94140D21E9DC011D92C9
:1006C0002A95E9F72BE031E0FC01318320839093F8
:1006D0006102809360020E94A50260ED77E080E0F5
:1006E00090E00E944F016E960FB6F894DEBF0FBEE9
:1006F000CDBFDF91CF911F910F91FF90EF900895A3
:100700000E94410E1F920F920FB60F9211242F9349
:100710003F938F939F93AF93BF938091BD0190912F
:10072000BE01A091BF01B091C0013091B80126E097
:10073000230F2D3720F40296A11DB11D05C029E815
:10074000230F0396A11DB11D2093B8018093BD0115
:100750009093BE01A093BF01B093C0018091B901F5
:100760009091BA01A091BB01B091BC010196A11D6D
:10077000B11D8093B9019093BA01A093BB01B093CE
:10078000BC01BF91AF919F918F913F912F910F909D
:100790000FBE0F901F9018951F920F920FB60F92D9
:1007A00011242F933F938F939F93AF93BF93EF9316
:1007B000FF939091C600903731F0903B21F0903D2F
:1007C00011F0903ED9F42091B6013091B701F901B2
:1007D000E557FF4FA081B1819C93D901A157BF4F2D
:1007E0008C918F5F8C938081918101968E179F07EA
:1007F00018F0C90189579F4F91838083FF91EF9132
:10080000BF91AF919F918F913F912F910F900FBE0C
:100810000F901F9018951F920F920FB60F921124F0
:100820002F933F934F935F938F939F93EF93FF93F8
:100830008091B6019091B701FC01EA57FF4F2081EA
:10084000222351F132970190F081E02D20813181F6
:100850008091C10030FF02C0816001C08E7F809313
:10086000C1002093C6002091B6013091B701F90173
:10087000EA57FF4F80818150808332978081918138
:100880000296A9014E575F4F8417950710F0C901D2
:100890000296918380830DC08091C1008F7D80641A
:1008A0008093C100E091B601F091B701E057FF4F8E
:1008B0001082FF91EF919F918F915F914F913F91A6
:1008C0002F910F900FBE0F901F9018951F920F92AF
:1008D0000FB60F9211242F933F938F939F93EF9313
:1008E000FF93E1ECF0E08081877B806980838091D9
:1008F000B6019091B7019C0129573F4FFC01E55784
:10090000FF4F3183208332963183208332961082C9
:10091000FF91EF919F918F913F912F910F900FBE7B
:100920000F901F901895CF93DF93CDB7DEB7A397A5
:100930000FB6F894DEBF0FBECDBF789484B5826049
:1009400084BD84B5816084BD85B5826085BD85B573
:10095000816085BD80916E00816080936E001092F1
:10096000810080918100826080938100809181006C
:1009700081608093810080918000816080938000FD
:100980008091B10084608093B1008091B00081605B
:100990008093B00080917A00846080937A00809187
:1009A0007A00826080937A0080917A008E7F8093B3
:1009B0007A0080917A00806880937A001092C1005A
:1009C00080E090E00E94650A90E09093D4018093CB
:1009D000D3018F3F910521F41092D4011092D301DD
:1009E0002091D3013091D40180913802213031051A
:1009F00029F4811109C080EE90E004C0811104C087
:100A000084EA90E00E94D5028091D7010E941301F0
:100A10009093DA018093D90108EC10E08091D7011E
:100A20000E941301BC01990F880B990B0E94920B35
:100A300020E030E040E85EE30E941E0C6B017C0188
:100A40008091D9019091DA01BC01990F880B990B23
:100A50000E94920B20E030E040E45FE30E941E0C15
:100A60009B01AC01C701B6010E947C0A0E945A0B8F
:100A70007093DA016093D90164E170E080E090E066
:100A80000E944F010150110949F6E3EFF1E0119284
:100A9000119222E0EB31F207D1F786E78093A402AE
:100AA00083E38093A50222E084E692E0281B29A339
:100AB000AAE12A2E312CBBE78B2EB4E99B2EB2E99A
:100AC000AB2EB3E4BB2E1CE1C12E1EE1D12E1AE9E0
:100AD000E12E1FE3F12E00911B0210911C02000F6A
:100AE000111FF801ED50FE4F60901D0270901E0224
:100AF00020813181621A730A28E030E0412C512CA8
:100B00008091D7012AA33BA30E941301480E591ECE
:100B10002AA13BA12150310999F78091D9019091E7
:100B2000DA01B201E3E075956795EA95E1F7681798
:100B300079070CF4BC01681B790B072E000C880B9D
:100B4000990B0E94920B20E030E040E85AE30E94AB
:100B50001E0C20E030E44CE955E40E941E0C20E815
:100B600036EE45EC57E40E947C0A6093DB017093FB
:100B7000DC018093DD019093DE0120E836EE45EC48
:100B800057E42093DF013093E0014093E10150935B
:100B9000E2018092E3019092E401A092E501B0921B
:100BA000E601C092EF01D092F001E092F101F092E3
:100BB000F2010E947B0A9B01AC010E947C0A2CE19D
:100BC0003EE14AE95FE30E94E80A0E94910C6093CB
:100BD000E7017093E8018093E9019093EA0126E62A
:100BE00036E646E650E40E941E0C6093EB017093DB
:100BF000EC018093ED019093EE010D501E4F0E9489
:100C00005A0BD8016D937C9320911B0230911C02EA
:100C1000F901EE0FFF1FED50FE4F80819181860D8F
:100C2000971D90931E0280931D022F5F3F4F24312A
:100C300031052CF430931C0220931B0204C0109247
:100C40001C0210921B0264E170E00E94E60C70939B
:100C5000D6016093D5010091D3011091D4010130E8
:100C6000110591F4072E000C880B990B0E94920B32
:100C70002BE232E14FE15FE30E941E0C0E945A0B0F
:100C80007093D6016093D5018091D5019091D601E2
:100C9000449724F41092D6011092D5016090D501AA
:100CA0007090D601A301072C000C660B770B809186
:100CB0003B0290913C02009761F020914102FC01BF
:100CC000B4E02B9FE00DF11D11244083518362831A
:100CD00073838091D1019091D201019721F5013068
:100CE000110519F469E171E002C068E271E080E089
:100CF00090E00E94B9007F926F9288E391E09F9309
:100D00008F9381EC91E09F938F930E94780E61EC1A
:100D100071E081E090E00E94B9000F900F900F9079
:100D20000F900F900F908091600290916102DC0112
:100D3000ED91FC910480F581E02D0995803E51F400
:100D40008091D1019091D201843091050CF05BC06B
:100D5000019652C0803751F48091D1019091D20117
:100D6000181619060CF04FC0019746C0803B09F0D9
:100D70004AC08091D1019091D201029791F41092D2
:100D8000D4011092D30160E080E090E00E946D0AEF
:100D900085E090E09093D2018093D10181E080932F
:100DA00000018091D1019091D2010397A1F481E0DB
:100DB00090E09093D4018093D30161E080E090E0D3
:100DC0000E946D0A85E090E09093D2018093D1015A
:100DD00081E0809300018091D1019091D20104972C
:100DE00091F41092D4011092D30160E080E090E081
:100DF0000E946D0A85E090E09093D2018093D1012A
:100E000081E08093000180910001882309F46BC088
:100E10008091D1019091D2018230910509F44FC0A7
:100E20002CF40097A9F00197E1F05DC084309105A2
:100E300009F44BC00CF446C0059709F054C063E9AF
:100E400071E080E090E00E94B90064EA71E045C082
:100E50006DE371E080E090E00E94B9006DE471E024
:100E60003CC08091D3019091D401019719F469E1BC
:100E700071E002C068E271E080E090E00E94B90099
:100E80008091D6018F938091D5018F9388E391E073
:100E90009F938F9381EC91E09F938F930E94780EA4
:100EA00061EC71E081E090E00E94B90010920001D5
:100EB0000F900F900F900F900F900F9014C06CE553
:100EC00071E005C067E771E002C063E871E080E0AF
:100ED00090E00E94B90069E671E081E090E00E9434
:100EE000B9001092000180911F0290912002A09100
:100EF0002102B09122028A569F4FAF4FBF4F2FB7AA
:100F0000F8944091BD015091BE016091BF01709174
:100F1000C0012FBF481759076A077B0708F49BC217
:100F20002FB7F8948091BD019091BE01A091BF01AF
:100F3000B091C0012FBF80931F0290932002A09315
:100F40002102B09322028091A302882351F1809163
:100F5000600290916102DC01ED91FC910280F381CD
:100F6000E02D40E06EE7099580916002909161026A
:100F7000DC01ED91FC910280F381E02D41E061E91B
:100F800009958091600290916102DC01ED91FC91E4
:100F90000280F381E02D41E061E309951092A30204
:100FA00013C21091A202112309F44BC0612E012E2D
:100FB000000C7708C3010E944A0E892B31F0C3014F
:100FC0000E94510E182F00E001C001E080916002E4
:100FD00090916102DC01ED91FC910280F381E02DA2
:100FE00040E06EE709958091600290916102DC011A
:100FF000ED91FC910280F381E02D41E062E00995E2
:101000008091600290916102DC01ED91FC9102807F
:10101000F381E02D011102C062E201C063E241E010
:1010200009958091600290916102DC01ED91FC9143
:101030000280F381E02D41E0612F09951092A20218
:10104000C3C12091390230913A022115310509F4CA
:10105000BBC16091230281E0860F8093230261115E
:1010600018C01092640210926A0210913802812F07
:10107000880F880F880F80936B02412F50E064E245
:1010800072E08CE692E00E94590E5AE0752E710EC5
:1010900042C160FD34C0669570E080913D02909140
:1010A0003E02861797075CF16150710940E050E0FD
:1010B000CE0101960E940602109264028B818093F9
:1010C0006A028C8DB8E08B9FC00111249D8D892B05
:1010D00080936B0280E02AE0280FE8E0F0E0EC0F5C
:1010E000FD1FE80FF11D9081992339F08F5FE22FEA
:1010F000F0E0EE59FD4F9083EECF722E0CC180E4EC
:101100008093640200E010E048E0742E80913F027A
:101110002091390230913A02682F70E040913B02F1
:1011200050913C02E4E08E9F400D511D1124CE01F0
:1011300001960E9406028C819D81AE81BF818F3F06
:10114000FFEF9F07AF07BF0709F4C6C05B81272DDC
:1011500030E04E8D71E0770D503168F02E593D4FE3
:10116000642F6F70F901608373947394E72FF0E03C
:10117000EE59FD4F0BC0772EF901EE59FD4F20E1DE
:10118000529FB0011124542F5F70562B508368A1D9
:1011900070E0272D30E04430B9F128F4442369F0A1
:1011A0004130D9F095C0483009F466C0493009F49F
:1011B00080C0453009F08CC042C0482F4F71B7FD48
:1011C00002C080E001C080E8F901EE59FD4F842B98
:1011D0009F8D892B808381E07CC0F901EE59FD4F02
:1011E0008083A9014F5F5F4FE92FEF71B7FD02C008
:1011F00080E001C080E8DA01AE59BD4F8E2B9F8D93
:10120000892B8C9382E065C0A901415E5D4FFA0194
:10121000ED5BFF4F808331969083A9014E5F5F4F56
:10122000EA2FEF71B7FD02C080E001C080E8DA016B
:10123000AE59BD4F8E2B9F8D892B8C931BC0A9015E
:10124000415E5D4FFA01ED5BFF4F808331969083E5
:10125000A9014E5F5F4F2D01772457FC7094672CD6
:10126000B7FD02C080E001C080E8FA01EE59FD4FF1
:10127000482A408283E02DC0A901415E5D4FFA01FA
:10128000ED5BFF4F8083319690833196A083A90157
:101290004D5F5F4FEB2FEF71B7FD02C080E001C0E3
:1012A00080E8DA01AE59BD4F8E2B9F8D892B8C9330
:1012B0000DC0A901415E5D4FFA01ED5BFF4F8083D8
:1012C000319690833196A0833196B08384E001C03B
:1012D00080E0782E720E02C060E070E080913F02E4
:1012E0008F5F80933F0220913D0230913E0290E05B
:1012F0008217930714F010923F020F5F1F4F0217DF
:1013000013074CF4872D90E09101261B370B8217B1
:1013100093070CF4FBCE8EE7809362028FE28093FA
:101320006302809164029EEF970D892B8093640283
:1013300089E08093650284EA809366028091A4022A
:10134000809367028091A5028093680210926902DF
:10135000E72DF0E0A4E6B2E080E027E099A19A0F43
:10136000971560F49D91892798E087FF03C0880F47
:10137000822701C0880F9150C1F7F0CFEE59FD4F81
:1013800080838091600290916102DC01ED91FC917B
:101390000280F381E02D40E06EE7099511E07116BF
:1013A00098F08091600290916102DC01ED91FC91D6
:1013B000A12FB0E0AE59BD4F0280F381E02D41E096
:1013C0006C9109951F5FEBCF809160029091610253
:1013D000DC01ED91FC910280F381E02D40E06EEFA5
:1013E000099580918202882319F102E812E0809128
:1013F000600290916102F80161918F01DC01ED9131
:10140000FC910280F381E02D41E00995B2E0023ABF
:101410001B0769F78091600290916102DC01ED91F8
:10142000FC910280F381E02D40E06FEF099513C03D
:1014300000E210E08091600290916102DC01ED9188
:10144000FC910280F381E02D41E060E009950150BC
:10145000110981F7DFCF80E090E0892B09F43BCBC5
:101460000E94000038CBEFE1F2E01082118212827C
:1014700013821482118E138E128E158E148E178E77
:10148000168E10A210926102109260021092A202B7
:101490001092A30286E78093A40282E38093A502C0
:1014A000158260E081E10E94D70081E190E0909395
:1014B000D8018093D7010895FB01DC0102C005909B
:1014C0000D9241505040D8F70895F999FECF92BD42
:1014D00081BDF89A992780B50895262FF999FECFF6
:1014E0001FBA92BD81BD20BD0FB6F894FA9AF99A41
:1014F0000FBE019608955058BB27AA270E94930A51
:101500000C94E40B0E94D60B38F00E94DD0B20F007
:1015100039F49F3F19F426F40C94D30B0EF4E095A4
:10152000E7FB0C94CD0BE92F0E94F50B58F3BA178B
:10153000620773078407950720F079F4A6F50C94E9
:10154000170C0EF4E0950B2EBA2FA02D0B01B9014C
:1015500090010C01CA01A0011124FF27591B99F029
:10156000593F50F4503E68F11A16F040A22F232F35
:10157000342F4427585FF3CF469537952795A79585
:10158000F0405395C9F77EF41F16BA0B620B730B2C
:10159000840BBAF09150A1F0FF0FBB1F661F771F9D
:1015A000881FC2F70EC0BA0F621F731F841F48F452
:1015B000879577956795B795F7959E3F08F0B0CFDB
:1015C0009395880F08F09927EE0F979587950895C2
:1015D0000E94FC0A0C94E40B0E94DD0B58F00E9460
:1015E000D60B40F029F45F3F29F00C94CD0B51113C
:1015F0000C94180C0C94D30B0E94F50B68F39923F0
:10160000B1F3552391F3951B550BBB27AA276217FE
:101610007307840738F09F5F5F4F220F331F441F0B
:10162000AA1FA9F335D00E2E3AF0E0E832D091503F
:101630005040E695001CCAF72BD0FE2F29D0660F2C
:10164000771F881FBB1F261737074807AB07B0E86F
:1016500009F0BB0B802DBF01FF2793585F4F3AF075
:101660009E3F510578F00C94CD0B0C94180C5F3F05
:10167000E4F3983ED4F3869577956795B795F795FB
:101680009F5FC9F7880F911D9695879597F90895E3
:10169000E1E0660F771F881FBB1F6217730784077F
:1016A000BA0720F0621B730B840BBA0BEE1F88F78E
:1016B000E09508950E94610B6894B1110C94180C88
:1016C00008950E94FD0B88F09F5798F0B92F992735
:1016D000B751B0F0E1F0660F771F881F991F1AF01D
:1016E000BA95C9F714C0B13091F00E94170CB1E05F
:1016F00008950C94170C672F782F8827B85F39F05E
:10170000B93FCCF3869577956795B395D9F73EF4B5
:1017100090958095709561957F4F8F4F9F4F08955D
:10172000E89409C097FB3EF490958095709561957B
:101730007F4F8F4F9F4F9923A9F0F92F96E9BB2731
:101740009395F695879577956795B795F111F8CFAD
:10175000FAF4BB0F11F460FF1BC06F5F7F4F8F4F18
:101760009F4F16C0882311F096E911C0772321F00E
:101770009EE8872F762F05C0662371F096E8862FA6
:1017800070E060E02AF09A95660F771F881FDAF7FD
:10179000880F9695879597F9089597F99F6780E840
:1017A00070E060E008959FEF80EC089500240A94B3
:1017B0001616170618060906089500240A9412162C
:1017C0001306140605060895092E0394000C11F45F
:1017D000882352F0BB0F40F4BF2B11F460FF04C00C
:1017E0006F5F7F4F8F4F9F4F089557FD9058440F65
:1017F000551F59F05F3F71F04795880F97FB991F70
:1018000061F09F3F79F0879508951216130614062C
:10181000551FF2CF4695F1DF08C0161617061806B9
:10182000991FF1CF86957105610508940895E89494
:10183000BB2766277727CB0197F908950E94310CC3
:101840000C94E40B0E94D60B38F00E94DD0B20F0C4
:10185000952311F00C94CD0B0C94D30B11240C9404
:10186000180C0E94F50B70F3959FC1F3950F50E093
:10187000551F629FF001729FBB27F00DB11D639F42
:10188000AA27F00DB11DAA1F649F6627B00DA11DE8
:10189000661F829F2227B00DA11D621F739FB00D8E
:1018A000A11D621F839FA00D611D221F749F3327FE
:1018B000A00D611D231F849F600D211D822F762F97
:1018C0006A2F11249F5750409AF0F1F088234AF074
:1018D000EE0FFF1FBB1F661F771F881F91505040E0
:1018E000A9F79E3F510580F00C94CD0B0C94180C79
:1018F0005F3FE4F3983ED4F3869577956795B79567
:10190000F795E7959F5FC1F7FE2B880F911D969580
:10191000879597F9089519F416F40C94D30B0C9449
:10192000D10C0E94FD0BB8F39923C9F3B6F39F576E
:10193000550B87FF0E94DF0C0024A0E640EA9001CF
:1019400080585695979528F4805C660F771F881FFE
:1019500020F026173707480730F4621B730B840BFF
:10196000202931294A2BA695179407942025312543
:101970004A2758F7660F771F881F20F0261737076A
:10198000480730F4620B730B840B200D311D411D91
:10199000A09581F7B901842F9158880F9695879566
:1019A00008959F3F31F0915020F487957795679582
:1019B000B795880F911D9695879597F90895915041
:1019C0005040660F771F881FD2F7089597FB072EA8
:1019D00016F4009407D077FD09D00E94FA0C07FC9A
:1019E00005D03EF4909581959F4F0895709561952F
:1019F0007F4F0895AA1BBB1B51E107C0AA1FBB1F45
:101A0000A617B70710F0A61BB70B881F991F5A958A
:101A1000A9F780959095BC01CD010895EE0FFF1FA9
:101A20000590F491E02D0994CF93DF9382309105D6
:101A300010F482E090E0E091A802F091A90220E089
:101A400030E0C0E0D0E0309711F14081518148177B
:101A50005907C0F04817590761F482819381209794
:101A600019F09B838A832BC09093A9028093A802CC
:101A700026C02115310519F04217530718F49A01B1
:101A8000BE01DF01EF010280F381E02DDCCF2115E3
:101A9000310509F1281B390B2430310590F41296D9
:101AA0008D919C9113976115710521F0FB01938332
:101AB000828304C09093A9028093A802FD0132960C
:101AC00044C0FD01E20FF31F81939193225031092D
:101AD0002D933C933AC02091A6023091A702232B6C
:101AE00041F420910301309104013093A702209327
:101AF000A60220910101309102012115310541F426
:101B00002DB73EB74091050150910601241B350BBE
:101B1000E091A602F091A702E217F307A0F42E1BB2
:101B20003F0B2817390778F0AC014E5F5F4F241741
:101B3000350748F04E0F5F1F5093A7024093A6024F
:101B40008193919302C0E0E0F0E0CF01DF91CF916B
:101B500008950F931F93CF93DF93009709F48CC0E0
:101B6000FC013297138212820091A8021091A902FF
:101B70000115110581F420813181820F931F20917D
:101B8000A6023091A7022817390779F5F093A7022A
:101B9000E093A60271C0D80140E050E0AE17BF0745
:101BA00050F412962D913C911397AD0121153105FA
:101BB00009F1D901F3CF9D01DA01338322836081DA
:101BC0007181860F971F8217930769F4EC012881B2
:101BD0003981260F371F2E5F3F4F318320838A8143
:101BE0009B8193838283452B29F4F093A902E09390
:101BF000A80242C01396FC93EE931297ED0149910F
:101C000059919E01240F351FE217F30771F480816B
:101C10009181840F951F029611969C938E938281D9
:101C2000938113969C938E931297E0E0F0E0D80195
:101C300012968D919C911397009719F0F8018C01E1
:101C4000F6CF8D919C9198012E5F3F4F820F931F8D
:101C50002091A6023091A7022817390769F430971E
:101C600029F41092A9021092A80202C013821282D3
:101C70001093A7020093A602DF91CF911F910F91BD
:101C8000089581E090E0F8940C94531185FD0C9434
:101C90006D10806291110C946D1081568A51D8F7A5
:101CA00008959111089581568A5108F480528558FB
:101CB0000895FB01DC0102C001900D92415050409B
:101CC000D8F70895DC0101C06D9341505040E0F712
:101CD0000895FB01DC014150504048F001900D9205
:101CE0000020C9F701C01D9241505040E0F708950F
:101CF000AEE0B0E0EEE7FEE00C942A110D891E89FB
:101D000086E08C831A8309838FEF9FE79E838D8300
:101D1000AE01475E5F4F6F89788DCE0101960E94BC
:101D20009B0E2F813885F801E20FF31F10822E964B
:101D3000E4E00C944611ACE0B0E0E1EAFEE00C9483
:101D40001C117C016B018A01FC01178216828381C0
:101D500081FFBDC1CE0101964C01F7019381F601CF
:101D600093FD859193FF81916F01882309F4ABC1A5
:101D7000853239F493FD859193FF81916F0185320E
:101D800029F4B70190E00E948610E7CF512C312C46
:101D900020E02032A0F48B3269F030F4803259F028
:101DA000833269F420612CC08D3239F0803339F4EC
:101DB000216026C02260246023C0286021C027FD46
:101DC00027C030ED380F3A3078F426FF06C0FAE02D
:101DD0005F9E300D1124532E13C08AE0389E300DC3
:101DE0001124332E20620CC08E3221F426FD6BC1EB
:101DF000206406C08C3611F4206802C0883641F495
:101E0000F60193FD859193FF81916F018111C1CFFF
:101E1000982F9F7D9554933028F40C5F1F4FFFE35C
:101E2000F9830DC0833631F0833771F0833509F0C3
:101E30005BC022C0F801808189830E5F1F4F44245C
:101E40004394512C540115C03801F2E06F0E711CFF
:101E5000F801A080B18026FF03C0652D70E002C0AC
:101E60006FEF7FEFC5012C870E947B102C0183014F
:101E70002C852F77222E17C03801F2E06F0E711CCF
:101E8000F801A080B18026FF03C0652D70E002C07C
:101E90006FEF7FEFC5012C870E9470102C012C85FD
:101EA0002068222E830123FC1BC0832D90E048165E
:101EB0005906B0F4B70180E290E00E9486103A948F
:101EC000F4CFF50127FC859127FE81915F01B701D1
:101ED00090E00E94861031103A94F1E04F1A5108B8
:101EE0004114510471F7E5C0843611F0893639F593
:101EF000F80127FF07C060817181828193810C5FA7
:101F00001F4F08C060817181072E000C880B990B50
:101F10000E5F1F4F2F76722E97FF09C09095809508
:101F2000709561957F4F8F4F9F4F2068722E2AE0EA
:101F300030E0A4010E94BE10A82EA81844C0853726
:101F400029F42F7EB22E2AE030E025C0F22FF97F4F
:101F5000BF2E8F36C1F018F4883579F0B4C08037C1
:101F600019F0883721F0AFC02F2F2061B22EB4FEB8
:101F70000DC08B2D8460B82E09C024FF0AC09F2F8E
:101F80009660B92E06C028E030E005C020E130E0C0
:101F900002C020E132E0F801B7FE07C06081718124
:101FA000828193810C5F1F4F06C06081718180E048
:101FB00090E00E5F1F4FA4010E94BE10A82EA8182B
:101FC000FB2DFF777F2E76FE0BC0372D3E7FA514AD
:101FD00050F474FE0AC072FC08C0372D3E7E05C066
:101FE000BA2C372D03C0BA2C01C0B52C34FF0DC05C
:101FF000FE01EA0DF11D8081803311F4397E09C0A4
:1020000032FF06C0B394B39404C0832F867809F0DE
:10201000B39433FD13C030FF06C05A2CB31418F428
:10202000530C5B18B32CB31468F4B70180E290E052
:102030003C870E948610B3943C85F5CFB31410F40E
:102040003B1801C0312C34FF12C0B70180E390E08F
:102050003C870E9486103C8532FF17C031FD03C0CB
:1020600088E790E002C088E590E0B7010CC0832FBC
:10207000867859F031FF02C08BE201C080E237FD63
:102080008DE2B70190E00E948610A51438F4B701E4
:1020900080E390E00E9486105A94F7CFAA94F4014E
:1020A000EA0DF11D8081B70190E00E948610A11019
:1020B000F5CF332009F451CEB70180E290E00E94C1
:1020C00086103A94F6CFF7018681978102C08FEF90
:1020D0009FEF2C96E2E10C943811992788270895F8
:1020E000FC010590615070400110D8F780959095E3
:1020F0008E0F9F1F0895FC016150704001900110E8
:10210000D8F7809590958E0F9F1F08950F931F937A
:10211000CF93DF93FB01238121FD03C08FEF9FEF5E
:1021200028C022FF16C0468157812481358142177D
:10213000530744F4A081B1819D012F5F3F4F31834C
:1021400020838C93268137812F5F3F4F37832683EF
:1021500010C0EB01092F182F0084F185E02D09959F
:10216000892BE1F68E819F8101969F838E83812F3B
:10217000902FDF91CF911F910F910895FA01AA2717
:10218000283051F1203181F1E8946F936E7F6E5FBA
:102190007F4F8F4F9F4FAF4FB1E03ED0B4E03CD068
:1021A000670F781F891F9A1FA11D680F791F8A1F4B
:1021B000911DA11D6A0F711D811D911DA11D20D0B2
:1021C00009F468943F912AE0269F11243019305D6C
:1021D0003193DEF6CF010895462F4770405D41935D
:1021E000B3E00FD0C9F7F6CF462F4F70405D4A33AA
:1021F00018F0495D31FD4052419302D0A9F7EACF72
:10220000B4E0A6959795879577956795BA95C9F7A0
:1022100000976105710508959B01AC010A2E069493
:102220005795479537952795BA95C9F7620F731F4C
:10223000841F951FA01D08952F923F924F925F9289
:102240006F927F928F929F92AF92BF92CF92DF92C6
:10225000EF92FF920F931F93CF93DF93CDB7DEB72B
:10226000CA1BDB0B0FB6F894DEBF0FBECDBF0994BF
:102270002A88398848885F846E847D848C849B8416
:10228000AA84B984C884DF80EE80FD800C811B8124
:10229000AA81B981CE0FD11D0FB6F894DEBF0FBE53
:0A22A000CDBFED010895F894FFCFC3
:1022AA00010000AA02800000000000A5028901C600
:1022BA000105020402524354004169727370656554
:1022CA006420286D706829004169727370656564BD
:1022DA0020286B6D2F6829003A202564002052437C
:1022EA0054204A65746920546F6F6C730020205221
:1022FA004354204169727370656564002020556EED
:10230A0069743A206B6D2F6800202053746F7265D0
:10231A003A20444F574E002020556E69743A206D7A
:10232A007068002052657365742064656661756C17
:10233A0074730053657474696E67732073746F7273
:10234A0065642100205365617263682073656E734A
:06235A006F727321000008
:00000001FF
